:020000040800F2
:10000000D814002001010008E30D00084D0D000880
:10001000E10D0008C3010008951000080000000071
:10002000000000000000000000000000E70D0008D4
:10003000C501000800000000E50D0008E90D0008FA
:100040001B0100081B0100081B0100081B01000820
:100050001B0100081B0100081B0100081B01000810
:100060001B0100081B0100081B0100081B01000800
:100070001B0100081B0100081B0100081B010008F0
:100080001B0100081B0100081B0100081B010008E0
:100090001B0100081B0100081B0100081B010008D0
:1000A0001B0100081B0100081B0100081B010008C0
:1000B0001B0100084D0E00086D0E00081B01000812
:1000C0001B0100081B0100081B0100081B010008A0
:1000D0001B0100081D1000081B0100085910000832
:1000E0001B0100081B0100081B010008DFF80CD0F1
:1000F00000F02AF80048004705190008D81400202D
:100100000648804706480047FEE7FEE7FEE7FEE7B1
:10011000FEE7FEE7FEE7FEE7FEE7FEE74B0E000820
:10012000ED000008D2B201E000F8012B491EFBD21D
:1001300070470022F6E710B513460A4604461946F2
:10014000FFF7F0FF204610BD064C074D06E0E068C3
:1001500040F0010394E8070098471034AC42F6D30E
:10016000FFF7C8FF6C1F00088C1F000870B58C18C3
:1001700010F8015B15F0070301D110F8013B2A11BB
:1001800006D110F8012B03E010F8016B01F8016BA8
:100190005B1EF9D12B0705D40023521E0DD401F8A4
:1001A000013BFAE710F8013BCB1A921C03E013F86D
:1001B000015B01F8015B521EF9D5A142D8D30020A2
:1001C00070BDFEE7704700002DE9F84FDFF8B891E9
:1001D000002409F1040A0AF1040B23460F270BF14E
:1001E000040EC9E00125A5402A40AA427DD1674EF0
:1001F000D1F804C0ACEB0608B44532D014DCBCF135
:10020000030F3AD009DCBCF1000F2AD0BCF1010F7A
:100210001CD0BCF1020F31D11DE0BCF1110F17D081
:10022000BCF1120F2AD119E0B8F5881F19D006DCED
:10023000B8F5803F15D0B8F5801F1FD111E0B8F593
:10024000001F0ED0B8F5041F18D10AE0CB6815E0E6
:10025000CB681B1D12E0CB6808330FE0CB680C3372
:100260000CE08B682BB1012B4FF0080303D04561E4
:1002700004E0042302E0056100E00023FF2A01D826
:10028000064601E000F104064FEA840501D9A5F114
:100290002005D6F8008007FA05FC28EA0C0803FAC6
:1002A00005F548EA0508C6F800804D68ED0062D5FE
:1002B000374DAE6946F00106AE61AD6924F0030624
:1002C00005F001050095334D06EB050CDCF80850F0
:1002D000A607360F07FA06F825EA0805DFF8B88002
:1002E000404503D14FF0000817E044E0DFF8AC8050
:1002F000404502D14FF001080FE0DFF8A4804045EF
:1003000002D14FF0020808E0DFF89880404502D1A2
:100310004FF0030801E04FF0040808FA06F848EA35
:100320000508CCF808804D68D9F80060ED034D460B
:1003300001D5164300E096432E604D68DAF8006060
:10034000AD03554601D5164300E096432E604D6837
:10035000DBF80060ED025D4601D5164300E09643F0
:100360002E604D68DEF80060AD02754601D516437B
:1003700000E096432E60641C0D682A46E5407FF439
:1003800031AFBDE8F88F00000004014000001110FB
:10039000001002400000014000080140000C014034
:1003A00000100140001401400AB1016170470904C6
:1003B000FBE7000001488068704700000000002053
:1003C0000248816802781144816070470000002073
:1003D000074810B5016841F010010160032000F0EA
:1003E00075F8002000F006F800F024F8002010BD99
:1003F0000020024070B50D4D04464FF47A71287804
:10040000B1FBF0F00A490968B1FBF0F000F0ECFA3A
:1004100048B9102C07D200222146501E00F036F8B1
:1004200000206C6070BD012070BD00000000002045
:100430000C0000200C4808B5816941F00101816180
:10044000816901F001010091C16941F08051C161F0
:10045000C06900F0805000900448416821F0E061DC
:1004600041F00071416008BD0010024000000140F1
:10047000002809DB00F01F020121914040098000A3
:1004800000F1E020C0F8001170470000F0B40E4BFE
:100490001B680C46C3F30223C3F10705042D00D9E2
:1004A0000425191D072901D2002300E0DB1E0126C7
:1004B00006FA05F1491E214099409E40761E1640DD
:1004C0003143F0BC00F0E7BD0CED00E0064900F060
:1004D000070208684FF6FF03184040EA0220034A6B
:1004E00010430860704700000CED00E00000FA05C2
:1004F0002DE9F0470F46050061D0434E306800F00B
:100500000700B84209D2306820F007003843306055
:10051000306800F00700B84251D128683B4C810791
:1005200012D5400703D5606840F4E0606060287829
:10053000000703D5606840F4605060606068A96897
:1005400020F0F000084360602878C00728D0686871
:10055000012810D02168022810D0890700292EDA3E
:10056000616821F0030101436160FFF723FF8046CA
:1005700041F288390DE021688903EFE78901EDE751
:10058000FFF718FFA0EB0801494502D90320BDE899
:10059000F0876068696800F00C00B0EB810FEFD164
:1005A000306800F00700B8420BD9306820F007002F
:1005B00038433060306800F00700B84201D00120B5
:1005C000E5E72878400705D56068E96820F4E06031
:1005D000084360602878000706D56068296920F420
:1005E000605040EAC100606000F038F86168084A75
:1005F000C1F30311515CC840064908600648006811
:10060000FFF7F8FE0020C2E7002002400010024081
:10061000541D00080C000020040000200448054977
:1006200000684968044AC1F30221515CC840704720
:100630000C00002000100240641D00080448054919
:1006400000684968044AC1F3C221515CC840704740
:100650000C00002000100240641D000812A185B0AB
:100660000FC98DE80F0014A0144A00680490516867
:10067000134801F00C03042B10D0082B0ED1C1F34A
:100680008343C9031DF803000AD5516804AAC1F3C6
:100690004041515C0A4A5043B0FBF1F005B070474D
:1006A00008494843FAE70000020304050607080961
:1006B0000A0B0C0D0E0F101001020000001002407A
:1006C00000127A0000093D002DE9F84F040070D0B7
:1006D0002078C04DC00749D06868C0F38100012868
:1006E00007D06868C0F38100022809D16868C00398
:1006F00006D52868800339D560680028E7D035E042
:100700006068B0F5803F0BD010B1B0F5A02F11D0CC
:10071000286820F480302860286820F4802002E0D7
:10072000286840F480302860606890B1FFF742FE8E
:1007300006460AE0286840F480202860F0E700BF01
:10074000FFF738FE801B642873D828688003F7D52C
:100750000CE0FFF72FFE064605E000BFFFF72AFE7C
:10076000801B6428F0D828688003F7D420789A4E3C
:1007700080074FF001094FF0000839D5686810F084
:100780000C0F07D06868C0F38100022809D168689F
:10079000C00306D42868800714D52069012808D131
:1007A00010E02069B0B1C6F80090FFF703FE0746DD
:1007B00005E00AE1FFF7FEFDC01B0228C4D8286847
:1007C0008007F7D52868616920F0F80040EAC10089
:1007D00028600DE0C6F80080FFF7ECFD074604E056
:1007E000FFF7E8FDC01B022823D828688007F7D44C
:1007F000207800072CD57948A169D9B1C0F80090BC
:10080000FFF7D8FD074604E0FFF7D4FDC01B022820
:100810000FD8686A8007F7D571484FF4FA5100681D
:10082000B0FBF1F0009000BF0098411E0091FAD299
:100830000EE080E0C0F80080FFF7BCFD074604E052
:10084000FFF7B8FDC01B022875D8686A8007F7D487
:100850002078400760D5E8690027C00008D4E8691F
:1008600040F08050E861E869012700F08050009076
:100870005C480168C90513D40168834641F480715E
:100880000160FFF797FD824606E000BFFFF792FD8B
:10089000A0EB0A0064284ED8DBF80000C005F5D5AF
:1008A000E06801280AD008B1052813D0286A20F092
:1008B00001002862286A20F0040002E0286A40F063
:1008C00001002862E06841F2883B98B1FFF772FDB1
:1008D00082460BE0286A40F004002862EEE700BF81
:1008E000FFF768FDA0EB0A0159455AD8286A80072E
:1008F000F6D50CE0FFF75EFD824605E0FFF75AFDF6
:10090000A0EB0A0159454CD8286A8007F6D41FB1DC
:10091000E86920F08050E861E06988B36968C1F354
:100920008101022944D00228C6F8608004D0FFF774
:1009300041FD044638E034E0FFF73CFD074604E0A3
:10094000FFF738FDC01B02282BD828688001F7D498
:10095000206AB0F5803F05D16868A16820F40030B6
:1009600008436860D4E908010843696821F47411F8
:1009700008436860C6F86090FFF71CFD044606E077
:1009800025E000BFFFF716FD001B022809D82868E4
:100990008001F7D51BE000BFFFF70CFD001B02280C
:1009A00002D90320BDE8F88F28688001F4D40EE056
:1009B0000128F7D06868226A00F48031914204D19E
:1009C000616A00F47010884201D00120EAE700203B
:1009D000E8E700000010024000004242800442426A
:1009E0000C0000200070004010B5401EB0F1807F68
:1009F00001D3012010BD4FF0E02460610F2160178A
:100A000000F049FB0020A06107202061002010BDFC
:100A100070B590F83C20012A26D0012480F83C4093
:100A2000022280F83D2003685A689D6822F0700613
:100A30000A6832435A600D4B02689A4208D0B2F1FC
:100A4000804F05D00A4B9A4202D00A4B9A4204D1F9
:100A5000496825F080031943916080F83D400021EA
:100A600080F83C10084670BD022070BD002C01408B
:100A7000000400400008004010B5040003D094F8C2
:100A80003D0010B107E0012010BD002084F83C00BB
:100A9000204600F01FF8022084F83D00211D206848
:100AA00000F0F4F9012084F8460084F83E0084F850
:100AB0003F0084F8400084F8410084F8420084F844
:100AC000430084F8440084F8450084F83D00002089
:100AD00010BD000008B5154A0168154891420ED1B5
:100AE000C16941F00201C161C069002200F0020049
:100AF000009002211D20FFF7C9FC1D2010E00D4AC7
:100B0000914211D1C16941F00401C161C069002263
:100B100000F00400009002211E20FFF7B7FC1E2009
:100B2000BDE80840FFF7A4BC08BD00000004004079
:100B3000001002400008004070B5044690F83C00E8
:100B4000012817D0012584F83C50022084F83D008C
:100B50002068826822F0770222F47F42826008686F
:100B6000502830D00DDC20284DD005DC98B310285B
:100B70003BD148E0022070BD302844D0402834D119
:100B800039E0602828D0702806D0B0F5805F2CD0DE
:100B9000B0F5005F29D10AE0CB68D1E901212068D6
:100BA00000F0AAF92068816841F0770109E0CB687C
:100BB000D1E90121206800F09FF92068816841F4A3
:100BC0008041816011E0CA684968206800F0A6F998
:100BD0005021206807E016E0CA684968206800F0E4
:100BE000AEF96021206800F091F984F83D500020B2
:100BF00084F83C0070BDCA684968206800F08EF92E
:100C000040212068EFE7226801461046EBE770B507
:100C1000040004D094F83900002510B106E001204A
:100C200070BD84F83850204600F022F8242084F863
:100C300039002068C16821F40051C160204600F0ED
:100C400091F92068016921F49041016120684169AE
:100C500021F02A0141612068C16841F40051C1605E
:100C6000E563202084F8390084F83A00002070BD44
:100C700070B586B000240094019402940394036834
:100C80002E482D4E022103220515B34226D1836939
:100C900043F480438361836903F48043049383694D
:100CA00043F0040383618069254E00F00400049042
:100CB0000802CDE90001039269463046FFF784FA45
:100CC000CDE90054694630460294FFF77DFA0022D0
:100CD00001212520FFF7DAFB252028E0194EB34239
:100CE00027D1C36943F48023C361C36903F480231C
:100CF0000493836943F0080383618069CDE900515F
:100D000000F00800CDE903200F4D69462846FFF7A3
:100D10005BFAE814CDE90004694628460294FFF71F
:100D200053FA002201212720FFF7B0FB2720FFF70D
:100D30009FFB06B070BD000000380140001002406B
:100D40000008014000480040000C0140FEE70000A0
:100D5000F0B585B0002000900190029003901D48EE
:100D6000816941F020018161816901F020010491D4
:100D7000816941F008018161816901F008010491F4
:100D8000816941F0040181618069012200F0040061
:100D9000114E1402049021463046FFF705FB0F4F19
:100DA000012204213846FFF7FFFA009401240325AD
:100DB000694630460194CDE90245FFF705FA042063
:100DC000CDE9000469463846CDE90245FFF7FCF954
:100DD00005B0F0BD001002400008014000140140C1
:100DE000FEE7FEE770477047FFF7EABA30B58FB00D
:100DF00028216846FFF79DF914210AA8FFF799F901
:100E000001210804CDE90010002402940225049178
:100E1000CDE907504FF4E01009906846FFF754FC05
:100E200008B172B6FEE70F20CDE90A054FF48060E5
:100E3000CDE90C4002210AA80E94FFF759FB0028C7
:100E400001D072B6FEE70FB030BD704705480068AC
:100E50000169C90705D06FF001010161024800F086
:100E600007BE70479C03002024020020054800684C
:100E70000169C90705D06FF001010161024800F066
:100E8000F7BD7047E4030020AC000020F0B5026815
:100E9000164B174C174D4FF08047984205D0B8427B
:100EA00003D0A04201D0A84203D122F070064A68C4
:100EB0003243984205D0B84203D0A04201D0A842A4
:100EC00003D122F44074CA6822434C6922F08002A4
:100ED000224302608A68C2620A688262984201D133
:100EE0000969016301214161F0BD0000002C01404E
:100EF000000400400008004010B5846842EA032264
:100F000024F47F440A432243826010BD826822F0A9
:100F100070020A4342F007018160704710B5036A0E
:100F2000046A24F001040462846924F0F00444EAB1
:100F3000021423F00A020A438461026210BD10B554
:100F4000036A23F0100303628369046A23F4704385
:100F500043EA023224F0A00343EA011182610162F4
:100F600010BD000070B5044600680169E26821F414
:100F70004051114301612169A06808436169084338
:100F80002168CA6841F20C639A430243CA60206830
:100F90004169A26921F44071114341611E492068F1
:100FA000884202D1FFF74AFB01E0FFF737FB00EB75
:100FB000C00101EB0012606864218000B2FBF0F315
:100FC000B3FBF1F36FF018067343B2FBF0F5B2FB1D
:100FD000F0F605EB8305322303EB0515B5FBF1F5C0
:100FE000B6FBF1F605F0F00505EB0615B2FBF0F6E1
:100FF000B2FBF0F0B0FBF1F06FF01802504306EBDB
:10100000800003EB0010B0FBF1F0216800F00F004E
:101010002844886070BD00000038014010B50C4CB9
:1010200020680168890605D56FF020010160094834
:1010300000F020FD20680168090607D56FF08001E7
:101040000160BDE81040034800F016BD10BD00006F
:101050002C040020AC00002010B50C4C2068016866
:10106000890605D56FF020010160094800F002FDF6
:1010700020680168090607D56FF080010160BDE8AE
:101080001040034800F0F8BC10BD00006C040020C4
:1010900024020020FEE70907090E002804DB00F106
:1010A000E02080F80014704700F00F0000F1E0200D
:1010B00080F8141D704702E008C8121F08C1002AFA
:1010C000FAD170477047002001E001C1121F002AC9
:1010D000FBD1704770B50446C06D0025012802D0D1
:1010E0000625284670BDA16A20468847074900208A
:1010F00008704868024603E0A042F2D0D0F87401BC
:101100000028F9D1C4F874214C60EAE710000020EF
:10111000F8B5144612880025052A36D14A7840F2DF
:10112000CF7713028A781A43CB78521C1E020B79B0
:1011300092B233435E1EBE4227D20027278001268B
:1011400001F8016BB4F800C00CF1010CA4F800C068
:101150005FEA437C03D006EBD306F6B201E0C3F3AB
:10116000C70601F8016BB4F800C00CF1010CA4F83B
:1011700000C0009700F0E2FA18B100F0EBFB054662
:1011800004E020883044208000E003252846F8BD94
:101190002DE9F041144612880025052A2FD14A78FE
:1011A00040F2CF7713028A781A43CB78521C1E0282
:1011B0000B7992B233435E1EBE4220D200262680B7
:1011C000022601F8016B2688761C26805E0704D073
:1011D000012606EBD306F6B201E0C3F3C70601F819
:1011E000016B27887F1C278000F0F6FA18B100F009
:1011F000B1FB054604E020883044208000E0032550
:101200002846BDE8F081F8B5144612880026052A64
:1012100025D14A780D7913028A781A43521C6B1E25
:1012200092B27C2B1BD800232380032701F8017B7B
:1012300027887F1C27806F0001F8017B27887F1C8F
:10124000278000932B4600F007FB18B100F082FBCB
:10125000064605E0208800EB4500208000E00326DC
:101260003046F8BD70B5144612880026052A27D1ED
:101270004A780D7913028A781A43CB78521C45EAD2
:1012800003256B1E92B27C2B1AD2002323800423E9
:1012900001F8013B23885B1C23806B0001F8013BB4
:1012A00023885B1C23802B4600F004FB18B100F060
:1012B00051FB064605E0208800EB4500208000E059
:1012C0000326304670BD2DE9F8438146108800277B
:1012D00015460C460A2845D3607826790102A07885
:1012E000237A0843401C1FFA80F8E07846EA00267B
:1012F00060790102A0790843401C82B2E079711E36
:1013000043EA0023607A7C292BD853B3792B28D861
:10131000B0EB430F25D10120009004F10A014846AB
:1013200000F09AFAA0B900202880172222702A889B
:10133000611C521C2A80720001F8012B2A88334656
:10134000521C2A8000904246484600F085FA18B1A7
:1013500000F000FB074605E0288800EB46002880E7
:1013600000E003273846BDE8F88390F8520010806B
:10137000002070477CB505461088002405280BD155
:101380004878020288781043401C82B2087918B964
:10139000C878FF2803D010B1032420467CBD00206C
:1013A0008DF80500CB780121FF2B0DD08DF80400BE
:1013B0000091012301A9284600F0C0F90028ECD0D3
:1013C00000F0C8FA0446E8E78DF80410F0E738B5F5
:1013D000054610880024052802D00324204638BD85
:1013E000487802028878C91C1043401C82B2012050
:1013F00003460090284600F02FFA0028EED000F0B7
:10140000A9FA0446EAE7F8B506461088002415460E
:10141000052829D948780B79020288784F7910433A
:10142000401C82B2C8784FF0010C43EA00235807F1
:1014300003D00CEBD300C0B201E0C3F3C700A3F1AB
:10144000010EBEF5F66F0FD2B8420DD13046891DA0
:10145000CDF800C000F072F918B100F07BFA044634
:1014600003E00520288000E003242046F8BDF8B5FD
:10147000064610880024154606281FD348780B79A5
:10148000020288781043401C82B2C87843EA0023E5
:1014900048795F1E772F11D85F063F0E87420DD126
:1014A000012000903046891D00F0D6F918B100F0F7
:1014B00051FA044603E00520288000E0032420467A
:1014C000F8BD0000F8B51D460446DDE906300E46BD
:1014D0002AB1F72A03D8114684F852200EB102250A
:1014E0001EE0114AA262114AE262114A2263114AC5
:1014F00062630022A263104AE263104A2264104A27
:10150000626400902A46204600F090F8050007D15A
:10151000204600F0BFFA28B184F853600120E0654E
:101520002846F8BD0325FBE70B1700082517000820
:10153000BB16000875160008751C0008FD1C000885
:10154000CD1C0008F8B5384F012607F108057C6866
:1015500066E0387808B10620F8BD6946204600F0FC
:101560008DFA01285AD19DF8000080B3012802D0DD
:10157000022853D114E004F5B7739A1FD4F834C08D
:10158000111D2046E04710BB94F86C0194F85210EE
:10159000884200D0D8B90221204600F080FA3DE010
:1015A000D4F8681100200B7884F86D3184F87061EC
:1015B00015F830207AB19A420AD105EBC00004F543
:1015C000B77243682046984784F8700103E025E02D
:1015D000401C1028ECDB94F86C01F8B194F8700111
:1015E00090B194F86D01D4F8681140F08000A4F82F
:1015F0006E610870B4F86E11D4F8683194F87021F7
:10160000481CA4F86E015A54D4F830C0B4F86E31B6
:1016100094F852102046D4F86821E047D4F8744179
:10162000002C96D10020F8BD100000202DE9F041DB
:101630001D46069B94460646002472B6082207689B
:1016400029466046B84701280DD1B5F5964F01D916
:10165000232003E006496800B1FBF0F0316980B255
:101660008847012800D0032462B62046BDE8F081F7
:10167000A07F17002DE9F0411E4690460F46044614
:10168000002572B6C18CFF2901D9AFF3008004296F
:1016900004D304F1650000F069F920B1052562B6B4
:1016A0002846BDE8F08194F865003870E08CC01ED3
:1016B00030806634C8F80040F1E770B50446002574
:1016C00072B6806D012803D0052562B6284670BD2C
:1016D000521E01262262A6841170A08C184481B289
:1016E000A184206A00F042F9A28C04F16501531C28
:1016F000A3845054030AA08C421CA2844354666500
:101700000121626800209047DFE710B5044672B6F9
:101710000020A0650146626801209047606980470B
:1017200062B610BD10B5044672B600214268084684
:101730009047A069804762B610BD0000F0B5521E08
:1017400090B2C218059E0A2A01D90120F0BD5C1E84
:10175000E21704EB5274012202EBE4051D4C012E4A
:1017600001D0EEB232E015F0FF0531D011F8016B77
:1017700000220AE026FA02F707F001072754401C6E
:101780005B1E521C80B29BB2D2B20BB1082AF1D3BD
:101790006D1EE8E700273D4611E000BF14F800E0A9
:1017A000BEF1000F05D002FA05FC4CEA070C0CF064
:1017B000FF075B1E401C6D1C9BB280B2EDB20BB1EB
:1017C000082DEBD3761E01F8017BF6B2002EE1D195
:1017D0000020F0BD98000020F0B5521E94B2E01831
:1017E0000A2801D90120F0BD581EC21700EB527023
:1017F000012505EBE000C6B216481BE000273A467B
:1018000011E000BF10F804E0BEF1000F05D005FAAA
:1018100002FC4CEA070C0CF0FF075B1E641C521C18
:101820009BB2A4B2D2B20BB1082AEBD3761E01F858
:10183000017BF6B2002EE1D10021425C3AB10022D8
:101840004254491C89B20A29F7D30020F0BD012275
:10185000F6E70000A200002010B5521E90B2C21898
:10186000029C0A2A01D9012010BD114A012C0AD07C
:1018700019E000BF31F8024B64BA22F81040401C56
:101880005B1E80B29BB2002BF4D10EE032F8104008
:10189000240A01F8014B12F81040401C5B1E01F8AD
:1018A000014B80B29BB2002BF0D1002010BD000094
:1018B000C0040020521E10B590B2C418104A0A2C61
:1018C0000FD9012010BD00BF32F81040240A01F8E2
:1018D000014B12F81040401C5B1E01F8014B80B216
:1018E0009BB2002BF0D1002032F81010491C22F8D6
:1018F0001010401C80B20A28F6D3002010BD000052
:10190000AC0400201CB5FEF763FDFFF76FFAFFF78C
:101910001FFA00254FF416542B46012229460B4886
:10192000CDE90045FFF7CEFD002301221946084806
:10193000CDE90045FFF7C6FD0448FFF7CBFB04489F
:10194000FFF7C8FBFFF7FEFDFCE70000AC0000203E
:1019500024020020002804D0012803D0072803D047
:1019600004207047022070470620704770B5094D6B
:10197000FF231A4605F5807606E000BF10F8014BFC
:1019800054402A5D5A40335D491E89B2F6D242EA7C
:10199000032070BD6C1D00080A4B00281A68D0682F
:1019A00002D040F0200001E020F02000D060186854
:1019B0000029C16802D041F0800101E021F08001DE
:1019C000C16070472C0400200A4B00281A68D068B8
:1019D00002D040F0200001E020F02000D060186824
:1019E0000029C16802D041F0800101E021F08001AE
:1019F000C16070476C04002007480068016A41F22A
:101A00001112114207D1016A9210114203D10168EB
:101A100021F0010101607047E403002007480068DD
:101A2000016A41F21112114207D1016A921011426A
:101A300003D1016821F00101016070479C0300207F
:101A400004480021026851620068016841F0010108
:101A500001607047E40300200448002102685162DD
:101A60000068016841F00101016070479C0300209B
:101A7000416C0847C16B0847016C084790F851302A
:101A800000222BB110F8502F0A7000214170012262
:101A900010467047002180F8511001207047012244
:101AA00080F8512080F850101046704702490968AC
:101AB00049680170012070472C0400200249096820
:101AC00049680170012070476C040020124810B56D
:101AD000104AC0E9002100210C22C160C0E90521A3
:101AE0004FF48052C161012B09D0022B0AD0016151
:101AF00081600948FFF78BF848B1002010BD4FF412
:101B0000C06101E04FF4806182600161F1E7012072
:101B100010BD0000003801402C040020124810B510
:101B2000104AC0E9002100210C22C160C0E9052152
:101B30004FF48052C161012B09D0022B0AD0016100
:101B400081600948FFF763F848B1002010BD4FF4E9
:101B5000C06101E04FF4806182600161F1E7012022
:101B600010BD0000004800406C04002002490968D4
:101B700048600120704700002C04002002490968D9
:101B800048600120704700006C04002030B587B029
:101B900000251A4C00950195029503950495164968
:101BA0000595216040F60F61401E6160C4E9025056
:101BB00025612046A561FEF75FFF70B94FF48050A4
:101BC000009069462046FEF7B7FF30B9049504A996
:101BD00020460595FEF71CFF10B1002007B030BD70
:101BE00021686FF0010008612068C16841F00101BF
:101BF000C1600120F2E7000000080040E40300207B
:101C000030B587B000251A4C0095019502950395D3
:101C1000049516490595216040F60F61401E6160EC
:101C2000C4E9025025612046A561FEF725FF70B981
:101C30004FF48050009069462046FEF77DFF30B992
:101C4000049504A920460595FEF7E2FE10B1002098
:101C500007B030BD21686FF0010008612068C168DD
:101C600041F00101C1600120F2E7000000040040E2
:101C70009C03002038B50446406D002508B1AFF341
:101C80000080E16868468847A16D39B104F16500BC
:101C9000012907D002290DD0032901D160698047AD
:101CA000284638BD00219DF800300122E2840B5403
:101CB000022009E0E18CFF2905D89DF800304A1C7C
:101CC000E2840B54EAE70320A065E7E770B5054618
:101CD000806D002428B1022805D0032808D0AFF376
:101CE0000080002100E001212846FFF7D8FE0446CD
:101CF000A86980470120A865204670BD70B50446DC
:101D0000806D0025012801D0AFF30080606D10B117
:101D100001281DD104E0002162680120904717E0EE
:101D2000A08C50B1206AA16800788847206A401CC6
:101D30002062A08C401EA0840AE003212046FFF709
:101D4000AEFE0546002162680120904700206065D4
:101D5000284670BD000000000000000001020304DE
:101D600006070809000000000102030400C18140C9
:101D700001C0804101C0804100C1814001C080415B
:101D800000C1814000C1814001C0804101C080414B
:101D900000C1814000C1814001C0804100C181403B
:101DA00001C0804101C0804100C1814001C080412B
:101DB00000C1814000C1814001C0804100C181401B
:101DC00001C0804101C0804100C1814000C181400B
:101DD00001C0804101C0804100C1814001C08041FB
:101DE00000C1814000C1814001C0804101C08041EB
:101DF00000C1814000C1814001C0804100C18140DB
:101E000001C0804101C0804100C1814000C18140CA
:101E100001C0804101C0804100C1814001C08041BA
:101E200000C1814000C1814001C0804100C18140AA
:101E300001C0804101C0804100C1814001C080419A
:101E400000C1814000C1814001C0804101C080418A
:101E500000C1814000C1814001C0804100C181407A
:101E600001C0804101C0804100C1814000C0C1016A
:101E7000C30302C2C60607C705C5C404CC0C0DCDFA
:101E80000FCFCE0E0ACACB0BC90908C8D81819D96A
:101E90001BDBDA1A1EDEDF1FDD1D1CDC14D4D5159A
:101EA000D71716D6D21213D311D1D010F03031F18A
:101EB00033F3F23236F6F737F53534F43CFCFD3DBA
:101EC000FF3F3EFEFA3A3BFB39F9F83828E8E929AA
:101ED000EB2B2AEAEE2E2FEF2DEDEC2CE42425E55A
:101EE00027E7E62622E2E323E12120E0A06061A1CA
:101EF00063A3A26266A6A767A56564A46CACAD6D7A
:101F0000AF6F6EAEAA6A6BAB69A9A86878B8B979E9
:101F1000BB7B7ABABE7E7FBF7DBDBC7CB47475B519
:101F200077B7B67672B2B373B17170B05090915109
:101F30009353529296565797559594549C5C5D9D39
:101F40005F9F9E5E5A9A9B5B995958988848498929
:101F50004B8B8A4A4E8E8F4F8D4D4C8C44848545D9
:101F60008747468682424383418180408C1F000818
:101F7000000000209C0300006C01000810200008F5
:101F80009C0300203C110000C610000832018210A2
:101F90001324F472023211136B1333080413651205
:101FA0003308031A0708292C136F143308061ACFB5
:101FB0002032171AC71829481311113308051A754A
:101FC000182A0F30192829501A911801301A0101C6
:101FD0006908690A13CD1A1408991914086D1B1B96
:101FE00008AD0C1A8D081A41081AF91401FF015D99
:101FF000131D1B1408C9191B087D0813BD1A1408EA
:10200000011C1B0859081A1D0401FF015D00000096
:04000005080000ED02
:00000001FF
